:020000040800F2
:10000000680E0020D9010008DD010008DF010008AA
:10001000E1010008E3010008E5010008000000001C
:10002000000000000000000000000000E7010008E0
:10003000E901000800000000EB010008ED010008E4
:10004000EF010008EF010008EF010008EF010008D0
:10005000EF010008EF01000869150008EF01000832
:10006000711500087915000881150008EF010008D6
:10007000EF010008EF010008EF010008EF010008A0
:10008000EF010008EF010008EF010008EF01000890
:10009000EF010008EF010008EF010008EF01000880
:1000A000EF010008EF010008EF010008EF01000870
:1000B000EF0100088504000877100008EF01000830
:1000C000EF010008EF010008EF010008EF01000850
:1000D000EF010008EF010008EF010008EF01000840
:1000E000EF010008EF010008EF01000800F002F83E
:1000F00000F05CF80AA090E8000C82448344AAF166
:100100000107DA4501D100F051F8AFF2090EBAE863
:100110000F0013F0010F18BFFB1A43F0010318473B
:1001200040550000605500000A444FF0000C10F8E4
:10013000013B13F0070408BF10F8014B1D1108BF65
:1001400010F8015B641E05D010F8016B641E01F805
:10015000016BF9D113F0080F1EBF10F8014BAD1C55
:100160000C1B09D16D1E58BF01F801CBFAD505E073
:1001700014F8016B01F8016B6D1EF9D59142D6D3CD
:10018000704700000023002400250026103A28BFF5
:1001900078C1FBD8520728BF30C148BF0B607047F9
:1001A0001FB505F086F81FBD10B510BD03F02CFC7F
:1001B0001146FFF7F5FF00F0EDF803F04AFC03B439
:1001C000FFF7F2FF03BC00F09DFB000030BF72B6EA
:1001D00062B680F30888704708480047FEE7FEE7EC
:1001E000FEE7FEE7FEE7FEE7FEE7FEE7FEE7FEE7E7
:1001F00003480449044A054B70470000ED0000081D
:1002000068050020680E00206806002068060020AF
:1002100010B5B748007810F0800F2AD0B44909789B
:1002200001F03F0004F01EFFB24908604FF08F411B
:10023000B048006804F076FFAE490860AE48008818
:1002400004F028FF0446AB480168204604F09EFDF8
:10025000A8490860A948008804F01CFF0446A54886
:100260000168204605F062F8A24908600020A04914
:100270000870A348007810F0800F2AD0A0490978B0
:1002800001F03F0004F0EEFE9E4908604FF08F4100
:100290009C48006804F046FF9A4908609A48008824
:1002A00004F0F8FE044697480168204604F06EFD0D
:1002B000944908609548008804F0ECFE0446914893
:1002C0000168204605F032F88E49086000208C490C
:1002D00008708F48007810F0800F2AD08C49097878
:1002E00001F03F0004F0BEFE8A4908604FF08F41E4
:1002F0008848006804F016FF864908608648008830
:1003000004F0C8FE044683480168204604F03EFD20
:10031000804908608148008804F0BCFE04467D489E
:100320000168204605F002F87A4908600020784903
:1003300008707B48007810F0800F2AD0784909783F
:1003400001F03F0004F08EFE764908604FF08F41C7
:100350007448006804F0E6FE72490860724800883C
:1003600004F098FE04466F480168204604F00EFD34
:100370006C4908606D48008804F08CFE04466948AA
:100380000168204604F0D2FF6649086000206449F5
:10039000087010BD0EB5092000F04FFA482000F09B
:1003A000DDF84FF47A7000F00AF9092000F045FA00
:1003B000482000F0D3F84FF4E131482000F0AFFAC4
:1003C0005B48806940F00100594988614FF0007036
:1003D0005849486000F0BCFB00F0EBFB5648006851
:1003E00020F480405349C1F80C0C4FF014005349DD
:1003F000087001F0ABFA322000F0E1F801F0A6FA43
:10040000322000F0DCF84FF4FA7001F0D0FA0A2044
:100410004A4908704A48008830B94948408818B9A4
:1004200000F023FC00BFFEE702F018FE472144F66F
:100430001F6001F0E2F841F61F41142001F0B4F80A
:100440004CF2503000F0BBF800F01EFC19E0FFF752
:10045000DFFE3C48006804F0C9FD04B23A48006879
:1004600004F0C4FD05B23948006804F0BFFD06B2CF
:10047000002300930193224629463046029300F060
:10048000CEFAE4E77CB53248008810F0010F25D0A1
:1004900001F0B1F901F060F90A2001F06BFD2D497E
:1004A000B1F9040004F0DEFD04462A49B1F9020066
:1004B00004F0D8FD05462749B1F9000004F0D2FD4B
:1004C0000646254BCDE900549A68596818683346AA
:1004D00001F01EFE02F02FFE02F07FFF1C48008894
:1004E00020F001004FF08041A1F810047CBD000015
:1004F0006200002020000020660000206E00002026
:10050000630000202400002068000020700000200C
:1005100064000020280000206A00002072000020F3
:10052000650000202C0000206C00002074000020DA
:1005300000100240000001400C0C014000000020AF
:10054000C2000020D8000020D4000020DC000020E1
:1005500010040040CE000020E40200204FF0E02113
:10056000096921F004014FF0E0221161C21700EB8C
:100570005272D2101F4B1A70194609784FF47A72D2
:1005800051431D4A1180704701461A4A12784A4366
:100590004FF0E0235A6100229A6101221A6100BFE4
:1005A0004FF0E022106910F0010F02D010F4803FEC
:1005B000F6D000224FF0E0231A619A61704701469D
:1005C0000D4A12884A434FF0E0235A6100229A6193
:1005D00001221A6100BF4FF0E022106910F0010FF4
:1005E00002D010F4803FF6D000224FF0E0231A61D1
:1005F0009A6170473000002032000020AF4A0A4064
:100600000243AF4B1A6070470146072323EA0102F9
:100610001202AC4B18684FF6FF0300EA0300AA4B26
:1006200040EA030040EA02004FF0E023C3F80C0D5B
:1006300070472DE9F0478046894614461D462046FE
:10064000E11704EB91714FEAA10AE11704EB9171F4
:100650008910A4EB8101CFB2042000EBC700C7B220
:100660002846FFF7D1FFC5F1040008FA00F60F2075
:10067000284100EA0900064306F00F06202C0CDA98
:10068000924800684FF0010101FA04F140EA0100CC
:100690004FF0E021C1F800010DE08D480068A4F1A1
:1006A00020014FF0010202FA01F240EA02004FF08D
:1006B000E021C1F80401874850F82A0006FA07F142
:1006C0000843844941F82A00BDE8F08770B5044624
:1006D0000B46CE1701EB9676B010CE1701EB96764F
:1006E000B610A1EB8606B606350E7B4B9B6943F030
:1006F0000103794EB3614FEAB63353F820300F2629
:10070000AE40B343754E46F82030334653F82030A0
:1007100004FA05F63343714E46F82030704B1E68DC
:100720004FF0010303FA01F346EA03066D4BC3F8E9
:10073000006412F0010F0AD06B4B1B684FF00106EA
:1007400006FA01F643EA0603664EC6F80C3412F0C8
:10075000020F0AD0654B1B684FF0010606FA01F63E
:1007600043EA06035F4EC6F8083470BD00B50020AA
:1007700059490861C8601420486100208861C86137
:100780000846006840F00100086008464068584983
:1007900008405149486008460068564908404E499B
:1007A00008600846006820F4802008600846406819
:1007B00020F4FE0048600020886000214FF00060B7
:1007C000FFF71CFF00BD10B54B48006840F0040067
:1007D0004FF0E021C1F8100D3F48C06940F0805053
:1007E0003D49C8614548406840F4807043494860CD
:1007F0000846006840F0040008600846006840F0C1
:1008000002000860FFF7E2FC10BD2F48001D2D49D3
:1008100008607047014649062F4A926942F001027A
:100820002D4B9A612F4A526822F0E0622D4B5A609C
:100830001A4652680A435A60704730B5044600258C
:10084000FFF794FF2448006840F480302249086094
:1008500000BF21480068400CFBD04FF480601E4967
:100860004860A01EC4B20846406840EA8440486020
:100870000846406840F4803048602148006840F0F5
:1008800032001F4908601448006840F08070124927
:10089000086000BF10480068400EFBD00E4840685A
:1008A00040F002000C49486005E00B484068C0F386
:1008B000870505F00305022DF7D130BD80FFFF1F2E
:1008C00008ED00E00CED00E00000FA0500E100E0BA
:1008D00004E100E000E400E00010024008000140F4
:1008E00000040140000001400C04014008040140E4
:1008F0000000FFF8FFFFF6FE10ED00E00070004082
:1009000000200240014600BF704700BF884A12889D
:1009100012F0400FFAD0C2B2864B1A8070472DE910
:10092000F05F05460E46300104F0B4FB8146824973
:1009300005FB01F004F0AEFB8246494604F094FA50
:100940000746384604F06EFB84B2204604F0A2FB52
:100950008346394604F0EAFC82464FF0834104F0B6
:10096000E1FB814604F05EFB8046240104EB0800B5
:1009700084B27248806940F004007049886108467A
:10098000806940F4804088616D48006820F47F6091
:100990006C49C1F804080846D0F8040840F40B601C
:1009A000C1F804086548C06840F480406349C860E5
:1009B0000846C06820F48040C8606348A0F8084832
:1009C0006248008842F20C0140EA01005F49088059
:1009D000BDE8F09F5749088000BF5549098811F0CC
:1009E000400FFAD070470146084609E010F8012B85
:1009F000504B1A8000BF4E4A128812F0400FFAD0B6
:100A00000278002AF2D17047C0F30801494A1180E8
:100A100000BF4749098811F0400FFAD070472DE90F
:100A2000F04F05460E4617469B46DDE90A9ADDF86B
:100A30002480B123A520FFF7E7FF5A20FFF7E4FF4A
:100A40001020FFF7E1FFA120FFF7DEFF002D02DA03
:100A5000C5F5004005B2C5F307242046FFF7D4FFD3
:100A60002344ECB22046FFF7CFFF2344002E02DAE6
:100A7000C6F5004006B2C6F307242046FFF7C4FFC0
:100A80002344F4B22046FFF7BFFF2344002F02DACD
:100A9000C7F5004007B2C7F307242046FFF7B4FFAD
:100AA0002344FCB22046FFF7AFFF2344BBF1000F05
:100AB00003DACBF500400FFA80FBCBF30724204686
:100AC000FFF7A2FF23440BF0FF042046FFF79CFF33
:100AD0002344B8F1000F03DAC8F500400FFA80F89C
:100AE000C8F307242046FFF78FFF234408F0FF04D4
:100AF0002046FFF789FF2344B9F1000F03DAC9F557
:100B000000400FFA80F9C9F307242046FFF77CFF65
:100B1000234409F0FF042046FFF776FF2344D8B2B0
:100B2000FFF772FFAA20FFF76FFFBDE8F08F00000C
:100B3000003801400438014040420F0000100240DC
:100B40000408014000000140003001400C38014021
:100B50006C48806940F008006A4988616A4800680A
:100B600020F070606949C1F8040C0846D0F8040C04
:100B700040F04070C1F8040C0846D0F8040C20F096
:100B80007040C1F8040C0846D0F8040C40F0405006
:100B9000C1F8040C0846D0F80C0C40F48040C1F8B1
:100BA0000C0C0846D0F80C0C40F40040C1F80C0CBA
:100BB000704710B5002400BF28E05548006820F4B5
:100BC00080405249C1F80C0C4FF06400FFF7F7FC6D
:100BD0004E48D0F80C0C20F400404C49C1F80C0CE5
:100BE0006420FFF7ECFC4948D0F80C0C40F480403E
:100BF0004649C1F80C0C0846D0F80C0C40F40040F3
:100C0000C1F80C0C6420FFF7DAFC641C032CD4DB65
:100C10003F48006820F480403C49C1F80C0C4FF07C
:100C20006400FFF7CCFC3948D0F80C0C40F480404D
:100C30003649C1F80C0C2820FFF7C1FC3348D0F826
:100C40000C0C20F48040324908604FF06400FFF73C
:100C5000B6FC2E48D0F80C0C40F480402B49C1F86B
:100C60000C0C2820FFF7ABFC10BD2948006820F4CD
:100C700080402649C1F80C0C0846D0F80C0C20F432
:100C80000040C1F80C0C70472148006840F48040D7
:100C90001E49C1F80C0C0846D0F80C0C40F400407A
:100CA000C1F80C0C704710B51948006820F480405A
:100CB0001649C1F80C0C4FF06400FFF780FC134894
:100CC000D0F80C0C40F480401049C1F80C0C2820DE
:100CD000FFF775FC0D48D0F80C0C20F480400C494F
:100CE00008604FF06400FFF76AFC0848D0F80C0C6D
:100CF00040F480400549C1F80C0C4FF41670FFF722
:100D00005EFC10BD00100240040C014000000140D8
:100D10000C0C014010B5F848806940F01000F6490D
:100D200088610846806940F004008861F3480068E3
:100D300020F47000F14908600846006840F40000A3
:100D400008600846C06840F02000C8600846006897
:100D500020F4702008600846006840F440300860C5
:100D6000E748006820F47020E649C1F8000808460A
:100D7000D0F8000840F44030C1F8000800F081FBD2
:100D8000E148008820F04000DF49088008460088DC
:100D900020F0020008800846008820F0010008804A
:100DA0000846008840F040000880012000F0BDFBAC
:100DB0000020D64908604FF00100D549C1F89001E4
:100DC00010BD70B505460C460020D2490860284683
:100DD00000F032FB0646204600F02EFB0120CC49F5
:100DE000C1F89001304670BD70B504460020C94975
:100DF0000860204600F020FBFF2000F01DFB0546A8
:100E00000120C349C1F89001284670BD2DE9F04189
:100E100007460D4616460020BE490860384600F0D9
:100E20000BFB8046002405E0FF2000F005FB285561
:100E3000601CC4B2B442F7DB0120B64908604046EA
:100E4000BDE8F0812DE9F04107460C46154600202B
:100E5000B0490860384600F0EFFA8046002605E009
:100E600014F8010B00F0E8FA701CC6B2AE42F7DBD2
:100E70000120A84908604046BDE8F08170B50446ED
:100E80000E460720FFF7B0FF054629462720FFF74B
:100E900098FF15F0400F10D06020FFF7A5FF9E4986
:100EA00008700846027821466120FFF7AFFFFF2156
:100EB000E220FFF786FF802070BD0120FCE710B51F
:100EC0000020924908604FF0050294494FF02A0033
:100ED000FFF7B8FF052292493020FFF7B3FF012149
:100EE0002120FFF76EFF1A212420FFF76AFF282137
:100EF0002520FFF766FF06213D20FFF762FF1D203A
:100F0000FFF772FF38B91C20FFF76EFF18B9732185
:100F10005020FFF756FF06213D20FFF752FF3F21EB
:100F20003C20FFF74EFF0F212620FFF74AFF0F213D
:100F30002020FFF746FF01207449086010BD1CB552
:100F400078A103C9CDE90001052269463020FFF7E9
:100F500079FF052269461020FFF758FF002406E0BC
:100F60001DF80400552800D003E0601CC4B2052C15
:100F7000F6DB00BF052C01D001201CBD0020FCE7E2
:100F80005D48C06940F004005B49C861084680695B
:100F900040F0080088616548006820F07F405949AA
:100FA000C1F8000C0846D0F8000C40F00840C1F829
:100FB000000C0846D0F8040C20F0FF00C1F8040C27
:100FC0000846D0F8040C40F08800C1F8040C5848DA
:100FD0000068574908604FF6FF70564908804FF087
:100FE00047004FF08041A1F828085348008840F29C
:100FF000011140EA01004FF08041A1F818084E4865
:101000000088A1F818084C480088A1F818084B4837
:10101000008840F2011140EA01004FF08041A1F840
:101020001C0846480088A1F81C0844480088A1F81C
:101030001C0843480088A1F820084148008841F274
:10104000111140EA01004FF08041A1F82008084644
:10105000B0F80C0840F01E00A1F80C080846808982
:1010600040F0010088810846B0F8000840F0010017
:10107000A1F800087047334908883349097811F00E
:10108000800F7ED110F0010F1BD02F49097801F09D
:101090004001402915D12C49097801F03F013F2931
:1010A0000AD12949097841F08001274A11704FF689
:1010B000FF71264A118004E023490978491C224A1D
:1010C000117010F0020F5CD01F49097811F0400F29
:1010D00040D01D49097841F080011B4A11701C491C
:1010E00009881A4A11804FF08041B1F8201821F088
:1010F0000201134A118044E0001002400010014038
:1011000000080140000001400030014090012242EF
:1011100000002142900121425E0000205900002081
:10112000540000205555555555000000000C014055
:101130000C0C01402C080040180800401C0800401E
:1011400020080040100800406200002066000020D7
:10115000340800400021A54A1170A54A1180A34916
:10116000097841F04001A14A1170A2490988A24AB8
:1011700011804FF08041B1F8201841F002019F4AE0
:1011800011809F49097811F0800F50D110F0010FA4
:101190001BD09B49097801F04001402915D198499D
:1011A000097801F03F013F290AD19549097841F0BA
:1011B0008001934A11704FF6FF71924A118004E04A
:1011C0008F490978491C8E4A117010F0040F2ED0F7
:1011D0008B49097811F0400F12D08949097841F004
:1011E0008001874A117088490988864A11804FF02A
:1011F0008041B1F8201821F02001804A118016E0CA
:1012000000217F4A11707F4A11807D49097841F0A1
:1012100040017B4A1170774909887C4A11804FF060
:101220008041B1F8201841F02001744A11807849BA
:10123000097811F0800F50D110F0010F1BD07449C4
:10124000097801F04001402915D17149097801F070
:101250003F013F290AD16E49097841F080016C4A6B
:1012600011704FF6FF716B4A118004E068490978EC
:10127000491C674A117010F0080F2ED06449097894
:1012800011F0400F12D06249097841F08001604AA4
:101290001170614909885F4A11804FF08041B1F8AF
:1012A000201821F40071554A118016E00021584A97
:1012B0001170584A11805649097841F04001544A4A
:1012C00011704C490988554A11804FF08041B1F89E
:1012D000201841F40071494A11805149097811F0F0
:1012E000800F50D110F0010F1BD04D49097801F04B
:1012F0004001402915D14A49097801F03F013F29B1
:101300000AD14749097841F08001454A11704FF6EA
:10131000FF71444A118004E041490978491C404A60
:10132000117010F0100F2ED03D49097811F0400FC8
:1013300012D03B49097841F08001394A11703A498D
:101340000988384A11804FF08041B1F8201821F403
:1013500000512A4A118016E00021314A1170314AA9
:1013600011802F49097841F040012D4A117021491F
:1013700009882E4A11804FF08041B1F8201841F4BD
:1013800000511E4A11800021294A1180704770B512
:1013900000BF1F48007810F0800F21D01C49097849
:1013A00001F03F0003F05EFE04464FF08F412046FF
:1013B00003F0B8FE04461748008803F06BFE0546AC
:1013C000214603F0E3FC04461448008803F062FE63
:1013D0000546214603F0AAFF044600200C49087088
:1013E0001449204603F071FFD3D370BD6200002082
:1013F00066000020240800406E0000202008004005
:1014000063000020680000203808004070000020C1
:10141000640000206A0000203C08004072000020A8
:10142000650000206C00002040080040740000208F
:1014300010080040002882450246002107E0481CB1
:1014400081B24FF6FE70814201DB002070474148B7
:10145000008910F0020FF2D03E488281002107E09F
:10146000481C81B24FF6FE70814201DB0020EDE79F
:101470003848008910F0010FF2D036488089C0B298
:10148000E4E700B53448806940F0040032498861DF
:101490000846806940F48050886130480068C0F395
:1014A00013002F49C1F800082C4800682D4940EA74
:1014B00001002B49C1F800080846D0F80C0840F09C
:1014C000E000C1F80C08234800882249088008463B
:1014D000008840F4007008800846008840F480705E
:1014E00008800846008840F004000880084600880C
:1014F00008800846008840F00200088008460088FE
:1015000040F0010008800846008840F0180008807C
:101510000846008808800846008840F0400008809F
:101520004FF0FF00FFF788FF00BD00F007000949FA
:1015300009884FF6C7721140064A11801146098882
:1015400041EAC00111801146098841F04001118033
:1015500070470000003001400010024000080140C8
:10156000000001400000B0BB01200E490860704738
:1015700004200C490860704708200A490860704739
:10158000102008490860704710B501220421062088
:10159000FFF79CF802230A2219461846FFF749F87C
:1015A00010BD00001404014070B504460D466448A7
:1015B000C06940F002006249C861624804804FF08F
:1015C0008040A0F82854B0F80C0440F001004FF01F
:1015D0008041A1F80C040846B0F8000440F0010076
:1015E000A1F800044FF002034FF01D024FF0030179
:1015F0004FF00100FFF71DF870BD514AD26942F06B
:1016000001024F4BDA611A46926942F004029A6174
:101610004D4A12686FF30F024C4BC3F800284A4A38
:1016200012684BF6BB3342EA0302484BC3F800286A
:10163000434A926942F00102414B9A61434A52681F
:1016400022F44072414B5A604FF0804290851185E0
:10165000128B42F060024FF080431A831A46128BBD
:1016600042F008021A831A46128B42F4C0421A83CF
:101670001A46128B42F400621A831A46928B42F089
:1016800060029A831A46928B42F008029A831A46A5
:10169000928B42F4C0429A831A46928B42F40062C3
:1016A0009A831A46128C42F001021A841A46128C4E
:1016B00042F010021A841A46128C42F480721A8484
:1016C0001A46128C42F480521A844FF400421A8057
:1016D0004FF08042128842F001021A804FF000025F
:1016E0009A861A879A871A4B1A80704770B50446F3
:1016F0000D461348C06940F008001149C8611548FB
:1017000004804FF08040A0F8285CB0F80C0C40F04A
:1017100001004FF08041A1F80C0C0846B0F8000C15
:1017200040F00100A1F8000C4FF002034FF032022C
:101730004FF003014FF00100FEF77BFF70BD00008A
:10174000001002402C04004000080140000001404D
:10175000400000402C0C0040DE480078DD4949780C
:1017600041EA002000B2DC490880DA488078D94993
:10177000C97841EA002000B2D7494880D5480079AD
:10178000D449497941EA002000B2D3498880D14840
:10179000007AD049497A41EA002000B2CF49088056
:1017A000CC48807ACB49C97A41EA002000B2CB49C3
:1017B0004880C848007BC749497B41EA002000B205
:1017C000C649888008460088C5490988401A00B281
:1017D000C4490880C1484088C1494988401A00B2BC
:1017E000C0494880BD488088BD498988401A00B2F8
:1017F000BC498880704710B5B64B0E223B2168204B
:1018000000F017FB10BDF8B506460F4614461D46FE
:101810006B4601223946304600F00BFB2DB101200A
:10182000A0409DF80010084305E00120A0409DF86D
:10183000001021EA0000C0B200909DF80020394657
:10184000304600F0D2FAF8BD2DE9F8430746884645
:1018500014461D46089E6B4601224146384600F05C
:10186000E8FA601CFF2101FA00F0C4F108012944E4
:10187000491EFF220A41104300F0FF09C5F108008C
:1018800006FA00F0C6B2C4F1070046FA00F0C6B28C
:101890009DF8000000EA090000909DF80000304328
:1018A00000909DF800204146384600F09EFABDE8C1
:1018B000F88338B50446032302226B216820009484
:1018C000FFF7C2FF38BD38B50446022304221B21AE
:1018D00068200094FFF7B8FF38BD38B504460223EE
:1018E00004221C2168200094FFF7AEFF38BD10B51C
:1018F0000446234606226B216820FFF784FF10BDB3
:1019000010B50446234605226A216820FFF77BFFB5
:1019100010BD10B504462346012237216820FFF789
:1019200072FF10BD38B50446032302221A21682035
:101930000094FFF789FF38BD38B50446082300221C
:10194000192168200094FFF77FFF38BD10B500F023
:1019500008FA0120FFF7ADFF0220FEF730FE03205A
:10196000FFF7B1FF0220FEF72AFE0120FFF7B5FFC7
:101970000220FEF724FE0220FEF721FE0320FFF7DF
:10198000D1FF0220FEF71BFE0020FFF7B0FF022070
:10199000FEF715FE0020FFF7B3FF0220FEF70FFE53
:1019A0000120FFF7B6FF0220FEF709FE10BD2DE96A
:1019B000FF5F0446002500260027A846A946AA4640
:1019C000AB4600BF2FE0142095FBF0F100FB115057
:1019D00030B94548006880F400404449C1F80C0C17
:1019E000FFF709FFFFF7B8FE3B48B0F900000644D7
:1019F0003948B0F9020007443748B0F90400A0F5AF
:101A0000005080443748B0F9000081443548B0F9AF
:101A1000020082443348B0F9040083440320FEF7F7
:101A2000CEFD681C85B2A542CDDB96FBF4F000B27A
:101A30002F49088097FBF4F000B2488098FBF4F03F
:101A400000B2888099FBF4F000B2254908809AFB27
:101A5000F4F000B248809BFBF4F000B28880B1F94A
:101A6000000002F0F1FD234A234BCDE9000102F012
:101A700051FECDE9020102F0A3FB2049086018499C
:101A8000B1F9020002F0E0FD1A4A1B4BCDE900015A
:101A900002F040FECDE9020102F092FB17494860D6
:101AA0000F49B1F9040002F0CFFD124A124BCDE903
:101AB000000102F02FFECDE9020102F081FB0F4987
:101AC0008860074800880E4908800548408848809B
:101AD000BDE8FF9FA8010020A4000020B600002060
:101AE000C8000020B00000200C0C014000000140A4
:101AF000C2000020650113B87537AF3FB801002060
:101B0000AA0000200020FF49087801E0411EC8B269
:101B10000028FBD1704700B5FB48C06840F080004A
:101B2000F949C8600846C06840F04000C860FFF747
:101B3000E9FFF548806810F0800F01D1002000BD5A
:101B4000F148C06820F08000EF49C860FFF7DAFF75
:101B5000ED48806810F0800F01D00020EFE7EA48E0
:101B6000C06820F08000E849C860FFF7CBFF012083
:101B7000E5E700B5E448C06820F04000E249C860ED
:101B8000FFF7C0FFE048C06820F08000DE49C86071
:101B9000FFF7B8FFDC48C06840F04000DA49C86091
:101BA000FFF7B0FFD848C06840F08000D649C86051
:101BB000FFF7A8FF00BD00B5D348C06820F0400083
:101BC000D149C860FFF79EFFCF48C06820F0800071
:101BD000CD49C860FFF796FFCB48C06840F0400091
:101BE000C949C860FFF78EFFC748C06820F04000B1
:101BF000C549C860FFF786FF00BD00B5C248C06890
:101C000020F04000C049C860FFF77CFFBE48C068B4
:101C100040F08000BC49C860FFF774FFBA48C06854
:101C200040F04000B849C860FFF76CFFB648C06894
:101C300020F04000B449C860FFF764FF00BD00B564
:101C4000B148C06820F04000AF49C860FFF75AFFB4
:101C5000AD48C06840F08000AB49C860FFF752FF54
:101C6000A948C06840F04000A749C860FFF74AFF94
:101C7000A548806810F0800F07D0A348C06820F006
:101C80004000A149C860002000BD9F48C06820F006
:101C900040009D49C8600120F6E700B502460823D0
:101CA00023E09948C06820F040009749C860FFF7DA
:101CB00029FF12F0800F06D09348C06840F08000E2
:101CC0009149C86005E09048C06820F080008E49C6
:101CD000C8605006020EFFF715FF8B48C06840F041
:101CE00040008949C860FFF70DFF1800A3F101010A
:101CF000CBB2D6D18448C06820F040008249C86089
:101D000000BD00B5082300227F48C06840F0800075
:101D10007D49C86018E05006020E7B48C06820F07C
:101D200040007949C860FFF7EDFE7748C06840F091
:101D300040007549C860FFF7E5FE7348806810F001
:101D4000800F01D042F001021800A3F10101CBB2D3
:101D5000E1D16D48C06820F040006B49C860104672
:101D600000BD6A48806940F0100068498861664893
:101D7000006820F07F40644908600846006840F031
:101D8000C640086070472DE9F04105460E461746EB
:101D90009846FFF7C0FE10B90020BDE8F081002191
:101DA00041EA4501C8B2FFF778FFFFF748FF18B9CD
:101DB000FFF7DFFE0020F0E73046FFF76EFFFFF78A
:101DC0003EFF00240BE018F80400FFF766FFFFF762
:101DD00036FF18B9FFF7CDFE0020DEE7641CBC42D9
:101DE000F1DBFFF7C6FE0120D7E770B504460D46CC
:101DF0001646FFF790FE08B9002070BD002141EAA9
:101E00004401C8B2FFF749FFFFF719FF18B9FFF700
:101E1000B0FE0020F1E72846FFF73FFFFFF70FFF76
:101E20003046FFF73AFFFFF70AFFFFF7A2FE012057
:101E3000E3E72DE9F04105460F4614461E46FFF73D
:101E40006AFE10B90020BDE8F081002141EA450199
:101E5000C8B2FFF722FFFFF7F2FE18B9FFF789FEBD
:101E60000020F0E73846FFF718FFFFF7E8FEFFF71E
:101E700052FE012101EB4501C8B2FFF70EFFFFF74B
:101E8000DEFE0CE0FFF73DFF3070012C02D1FFF7C2
:101E9000B4FE01E0FFF78FFE761C601EC4B2002C7A
:101EA000F0D1FFF766FE0120CDE710B5FFF733FE56
:101EB0003C20FFF7F2FEFFF7C2FE0220FFF7EDFE27
:101EC000FFF7BDFE0020FFF7E8FEFFF7B8FEFFF7C3
:101ED00050FE10BD2DE9FC4105460E461746002078
:101EE000009001900024FFF716FE3C20FFF7D5FE7E
:101EF000FFF7A5FE0320FFF7D0FEFFF7A0FEFFF7D8
:101F00000AFE05E000000020001001400010024021
:101F10003D20FFF7C2FEFFF792FE00BF0CE0FFF787
:101F2000F0FE0DF80400052C02D1FFF766FE01E07B
:101F3000FFF741FE601CC4B2062CF0DBFFF719FE70
:101F40009DF801009DF8001040EA012000B22880B1
:101F50009DF803009DF8021040EA012000B238808D
:101F60009DF805009DF8041040EA012000B2308081
:101F7000BDE8FC812DE9FC5F07464FF00008C14633
:101F8000C246FF49B1F9000002F05EFBFD4AFE4B7C
:101F9000CDE9000102F0BEFB044602F011F9FB4955
:101FA0000860F749B1F9020002F04EFBF54AF64B22
:101FB000CDE9000102F0AEFB044602F001F9F3495D
:101FC0004860EF49B1F9040002F03EFB0446ED4AD7
:101FD000ED4B02F09FFBCDE9000102F0F1F8EB4977
:101FE0008860EB49B1F9000002F02EFB0446E54A97
:101FF000E54B02F08FFBCDE9000102F0E1F8E54985
:102000000860E349B1F9020002F01EFB0446DD4A14
:10201000DD4B02F07FFBCDE9000102F0D1F8DD4994
:102020004860DB49B1F9040002F00EFB0446D54AD2
:10203000D54B02F06FFBCDE9000102F0C1F8D549A4
:102040008860D5480088D549D54A127821F8120011
:10205000D1484088D349D24A127821F81200CE489C
:102060008088D149CE4A127821F8120000260DE06E
:10207000CA4830F916008044CA4830F91600814435
:10208000C94830F916008244701CC6B2BE42EFDB6C
:10209000384602F0FFFF0546404602F0E3FF834664
:1020A000294602F0E1FE044602F0A0FF00B2BF495B
:1020B0000880384602F0EEFF0546484602F0D2FF9F
:1020C0008346294602F0D0FE044602F08FFF00B29C
:1020D000B6494880384602F0DDFF0546504602F01A
:1020E000C1FF8346294602F0BFFE044602F07EFF90
:1020F00000B2AE498880AA480078401CA849087000
:1021000008460078B84201D100200870BDE8FC9F65
:102110000FB599B0199802F00DFEA54AA54BCDE96F
:102120000A0102F0F7FACDE90C0102F049F8199022
:102130001A9802F0FFFD9E4A9E4BCDE90A0102F07B
:10214000E9FACDE90C0102F03BF81A901B9802F075
:10215000F1FD974A974BCDE90A0102F0DBFACDE990
:102160000C0102F02DF81B901F99084602F0DAFFCF
:102170000C901E99084602F0D5FF0A901C9908465B
:1021800002F0D0FF09900A9902F000FE0B900C9922
:1021900002F0FCFD0D9000F03BFF179017991C9882
:1021A00002F0C0FF1C9017991E9802F0BBFF1E9012
:1021B00017991F9802F0B6FF1F907F4801687F486B
:1021C000006802F0AFFF0D907D4801687D4800680F
:1021D00002F0A8FF0C900D9903F0B2F81690784821
:1021E00001687548006802F09DFF0D907548016810
:1021F0007248006802F096FF0C900D9902F0C6FD3F
:1022000015906F480168006802F08CFF0D906B48D4
:102210000168006802F086FF4FF07C510B9003F0DC
:102220008FF80C900D9902F0B1FD149015991F983C
:1022300002F078FF0D9014991E9802F073FF0C9035
:102240000D9903F07DF8139014991C9802F06AFF21
:102250000D9016991F9802F065FF0C900D9903F0F0
:102260006FF8129016991E9802F05CFF0D90159968
:102270001C9802F057FF0C900D9903F061F8119033
:1022800051481399006802F04DFF0C904F480168C7
:102290000C9802F047FF0D904D4801680D9802F030
:1022A00075FD4B49086048481299006802F03AFFF2
:1022B0000C90464801680C9802F034FF0D90454898
:1022C00001680D9802F062FD424908603E4811998C
:1022D000006802F027FF0C903C4801680C9802F05F
:1022E00021FF0D903C4801680D9802F04FFD3A49DE
:1022F000086037480168199802F048FD1990354880
:1023000001681A9802F042FD1A90334801681B9840
:1023100002F03CFD1B9031481399006802F002FF67
:102320000D90199902F032FD19902C48129900680D
:1023300002F0F8FE0D901A9902F028FD1A90274835
:102340001199006802F0EEFE0D901B9902F01EFD3F
:102350001B902349199802F0E5FE199020491A981C
:1023600002F0E0FE1A901E491B9802F0DBFE1B9063
:10237000124800681090134800680F900E4831E032
:10238000B0000020650113B87537AF3FE4020020AC
:10239000B6000020F0020020A4000020C4010020AC
:1023A000A0000020D8010020EC010020CE00002079
:1023B000A835CD3B4ED1913F9800002090000020E1
:1023C0009C000020940000207C0000208000002061
:1023D00084000020880000208C000020780000206D
:1023E0000AD7A33A00680E90FF481B99006802F0D4
:1023F00099FE0C901A990E9802F094FE0A900F988C
:1024000080F000400890199902F08CFE09900A991A
:1024100002F096FF0B900C9902F092FF0D90F3489A
:1024200001680D9802F0B2FCF0490860EE481A9974
:10243000006802F077FE0C901B990E9802F072FE75
:102440000A901099199802F06DFE09900A9902F00D
:102450009DFC0B900C9902F073FF0D90E44801680D
:102460000D9802F093FCE2490860DF480168199872
:1024700002F058FE0C901B990F9802F053FE0A9040
:102480001A99109802F04EFE09900A9902F058FF2E
:102490000B900C9902F07AFC0D90D64801680D98CB
:1024A00002F074FCD34908600E99199802F03AFEC4
:1024B0000C901A990F9802F035FE0A901B9910980B
:1024C00002F030FE09900A9902F060FC0B900C9922
:1024D00002F036FF0D90C44801680D9802F056FCDA
:1024E000C149086008460168006802F01BFE0C90B4
:1024F000C0480168006802F015FE0A90BC480168F7
:10250000006802F00FFE0890B8480168006802F009
:1025100009FE0790089902F039FC09900A9902F027
:1025200035FC0B900C9902F031FC0D9000F070FD21
:102530001790AE481799006802F0F4FDAB490860A7
:10254000AB481799006802F0EDFDA9490860A94859
:102550001799006802F0E6FDA6490860A24817999D
:10256000006802F0DFFDA0490860A04801684FF054
:10257000804002F0D7FD04909E480168049802F064
:10258000D1FD06909A4801684FF0404002F0CAFD24
:10259000049095480168049802F0C4FD05900699DE
:1025A00002F0F4FB079002F0C5FBCDE9080101F051
:1025B000CFFA4FF06632904BCDE90A0102F0AAF84B
:1025C000CDE90C0101F0FCFD8C49086089480168E7
:1025D0004FF0804002F0A6FD019086480168019806
:1025E00002F0A0FD0390824801684FF0404002F0E5
:1025F00099FD01907E480168019802F093FD0290D8
:10260000039902F09DFE4FF07E51049002F0BEFB54
:10261000059002F08FFBCDE90801744801684FF086
:10262000804002F07FFD029071480168029802F03C
:1026300079FD04906F4801684FF0804002F072FD10
:10264000029069480168029802F06CFD03900499B9
:1026500002F09CFB059002F06DFBCDE90601DDE97F
:10266000082301F0C7FC4FF06632634BCDE90A0145
:1026700002F050F8CDE90C0101F0A2FD60490860BC
:1026800060495F48006802F020FE05D35E495C485F
:10269000006802F013FD1BD200215848006802F0C8
:1026A00014FE06D255480168584802F049FE5349C5
:1026B000086000215148006802F000FD08D24F4830
:1026C0000168524802F062FB80F000404B4908600C
:1026D000474801684FF0804002F024FD01904448D3
:1026E0000168019802F01EFD0390404801684FF018
:1026F000804002F017FD01903C480168019802F00B
:1027000011FD0290039902F041FB4FF07E510490BD
:1027100002F016FE059002F00DFBCDE908013348EA
:1027200001684FF0804002F0FDFC02902E480168E5
:10273000029802F0F7FC04902D4801684FF08040A9
:1027400002F0F0FC02902B480168029802F0EAFCCB
:102750000390049902F0F4FD059002F0EBFACDE944
:102760000601DDE9082301F045FC294A224BA43B80
:10277000CDE90A0101F0CEFFCDE90C0101F020FD09
:102780002449086000212348006802F097FC06D223
:1027900021492048006802F0F9FA1E4908601DB07E
:1027A00000BD2DE9F04F93B000264C221B4968462E
:1027B00001F0DFF80027B046B1461949B1F9000031
:1027C00002F050FC174908601549B1F9020002F007
:1027D00049FC154908601249B1F9040002F042FCB5
:1027E0001249086000BF49E09C00002090000020D2
:1027F000940000209800002066A64C40D4000020E1
:10280000D80000200000B4420000B4C200003443ED
:10281000F6285C8FDC0000200000B443205500083F
:10282000A4000020000200204C020020980200209A
:10283000B84A52F826105DF8260002F073FC0446F0
:10284000394602F0A3FA0746B34A52F826105DF85B
:10285000260002F067FC0446414602F097FA8046E3
:10286000AE4A52F826105DF8260002F05BFC0446E2
:10287000494602F08BFA8146701CC6B2132ED7DB94
:10288000384602F0B3FB00B2A5490880404602F08A
:10289000ADFB00B2A2494880484602F0A7FB00B257
:1028A0009F49888000261FE0C6F11100994951F820
:1028B0002000C6F11201974A42F82100C6F111002A
:1028C000954951F82000C6F11201934A42F82100BF
:1028D000C6F11100914951F82000C6F112018F4A4A
:1028E00042F82100701CC6B2122EDDDB8D49B1F911
:1028F000000001F0A9FE82468B4A8C4B01F00AFFD2
:10290000044601F05DFC8A4908608649B1F902007D
:1029100001F09AFE8246844A844B01F0FBFE044695
:1029200001F04EFC824948607E49B1F9040001F093
:102930008BFE04467C4A7D4B01F0ECFE824601F0A2
:102940003FFC7B4988607B49B1F9000001F07CFEC7
:102950008246754A754B01F0DDFE044601F030FCFD
:10296000754908607349B1F9020001F06DFE044633
:102970006D4A6E4B01F0CEFE824601F021FC6E499D
:1029800048606C49B1F9040001F05EFE0446664AF5
:10299000664B01F0BFFE824601F012FC664988607A
:1029A00013B0BDE8F08F2DE9F04F89B0804689461D
:1029B00017469A4600200890BAF1000F06D0BAF1E7
:1029C000010F32D0BAF1020F2ED15EE0384602F08C
:1029D000B1F9CDE906014946484602F0A3FB41465C
:1029E0000190404602F09EFB0090019902F0CEF962
:1029F000834602F09FF9CDE9020101F0BBFBCDE96E
:102A00000401DDE9062301F0C7FC044601F0D8FB10
:102A10000646304602F08EF9CDE9060101F0D8F9FC
:102A2000044601F0CDFB08905FE03946384602F0DD
:102A300079FB49460190484602F074FB00900199E9
:102A400002F0A4F9834602F075F9CDE9020101F024
:102A500091FB04460D46404602F06CF922462B4697
:102A6000CDE9040101F098FCCDE9060101F0A8FBD5
:102A70000646304602F05EF9CDE9060101F0A8F9FC
:102A8000044601F09DFB08902FE03946384602F0DD
:102A900049FB41460190404602F044FB00900199F9
:102AA00002F074F9834602F045F9CDE9020101F024
:102AB00061FB04460D46484602F03CF922462B468F
:102AC000CDE9040101F068FCCDE9060101F078FBD5
:102AD0000646304602F02EF9CDE9060101F078F9FC
:102AE000044601F06DFB089000BF00BF1349089831
:102AF00002F018FB834602F01DF90446104A114B00
:102B000001F04AFCCDE9060101F05AFB09B0BDE82D
:102B1000F08F0000000200204C02002098020020EC
:102B2000CE000020B0000020650113B87537AF3F1C
:102B3000E4020020B6000020F00200200000344330
:102B40001F85EB51B81E094070B50646304602F0AD
:102B5000F1F804460022134601F0DAFE01D83046AF
:102B600070BD86F00040FBE710B5044621462046C4
:102B700002F0D8FA10BD2DE9F05F04464FF07F59FE
:102B80004FF07C51204602F0CDFA824625462E4673
:102B9000FB48A0EB660635462946504602F0C2FACD
:102BA0008346294602F0BEFA8046494602F0BEFB43
:102BB0000746294602F0B6FA05462946504602F075
:102BC000B1FA8346294602F0ADFA8046494602F042
:102BD000ADFB0746294602F0A5FA054629462046E0
:102BE00002F0A0FABDE8F09F2DE9FC5F06460F4613
:102BF0004FF0000213463046394601F04FFD12D225
:102C0000E04AE14B3046394601F084FD8246DF4A16
:102C1000DF4B01F007FB804632463B4601F07AFD70
:102C200004460D4611E0D74AD74B3046394601F0ED
:102C300071FD8046D54AD64B01F0A0FE8246324651
:102C40003B4601F067FD04460D4600221346204630
:102C5000294601F023FD18D20022CE4B20462946FA
:102C600001F0E0FA8046CC4ACC4B01F053FD82469D
:102C70000022C84B01F0D6FA22462B46CDE90001CE
:102C800001F048FD04460D4617E00022C14B2046E6
:102C9000294601F065FF8046BF4AC14B01F03AFD6D
:102CA00082460022BB4B01F0BDFA22462B46CDE9FD
:102CB000000101F02FFD04460D4620462946BDE8DF
:102CC000FC9F2DE9F04704460D464FF00108B54A38
:102CD000B54B2046294601F01BFE0BD8B14AB24B3A
:102CE0002046294601F03CFF04460D46C8F100008D
:102CF00000F0FF08404601F0BEFC06460F462046A5
:102D00002946FFF771FF814632463B4601F002FD3E
:102D1000BDE8F0872DE9FC4704460D464FF0010A57
:102D2000A04AA24B2046294601F07CFA04460D46F3
:102D30009C4A9D4B2046294601F0EAFD0BD8CAF17A
:102D4000000000F0FF0A974A974B2046294601F001
:102D500007FF04460D46504601F08DFC06460F461F
:102D600020462946FFF7ADFF804632463B4601F03C
:102D7000D1FCCDE9000101F023FABDE8FC872DE983
:102D8000F04F89B080464146404602F0CBF9834679
:102D9000584601F0CFFF864A864BCDE9000101F08D
:102DA00041FA06460F46584601F0C4FF81463246B6
:102DB0003B4601F0AFFC04467F4A804B01F032FAFB
:102DC000CDE90401584601F0B5FF7D4A7D4BCDE9C0
:102DD000000101F09FFC04467B4A784B01F022FA87
:102DE00006460F46404601F0A5FF814632463B4667
:102DF00001F090FCCDE90201DDE9042301F0CCFAF9
:102E0000CDE9060101F0DCF909B0BDE8F08F2DE94C
:102E1000F14F86B0069801F08DFF04466B4A6C4B6B
:102E200001F03CFC05D20698FFF7A9FF07B0BDE80A
:102E3000F08F069801F07EFF0446664A664B01F06B
:102E400067FD1CD2069801F075FF804602460B46CE
:102E50000020504901F0A0FA064601F0B1F983467E
:102E6000FFF78DFF824601F065FF04465B4A4F4B3A
:102E700001F084FDCDE9040101F0A2F9D6E706983E
:102E800001F058FF04460022424B01F0CBF9CDE996
:102E90000001069801F04EFF044600223D4B01F070
:102EA0005FFE0646DDE9002301F076FACDE9020176
:102EB00001F086F90490FFF762FF059001F03AFFF8
:102EC0008046464A464B01F0ADF9824601F078F95A
:102ED000ACE72DE9F84F07464FF0000A384601F0FD
:102EE00029FF044600223F4B01F0D8FB08D33846A7
:102EF00001F020FF04460022264B01F009FD02D21A
:102F00000020BDE8F88F384601F014FF0446002287
:102F1000134601F0C3FB03D287F000474FF0010ACC
:102F20003946384602F0FEF8009001F003FF0446EF
:102F30000022184B01F022FD804601F041F9834642
:102F4000FFF719FE0646384601F0F4FE0446264A0D
:102F5000264B01F0DDFC4BD23946304601F084FFB0
:102F60000090FFF754FF834601F0E4FE80461B4AC1
:102F70000E4B01F003FD044601F022F906463FE046
:102F8000DF59375F592799622FF0D93FA662846CC9
:102F9000305FF43F0000F03FCDCCCCCCCCCCCCBFEC
:102FA000CCCCCC3FF1D4C853FB210940FB21F93FE5
:102FB00079680EFF9F2D25405F9A22C0E951294074
:102FC0007D02EE9A0C7A194011A1B6B27C9F7097DF
:102FD0007982DA3FF013EE324F500340282D4454EB
:102FE000FB21E93F0000F0BF3E9865669EA0E63FEA
:102FF0003146384601F038FF0446FFF708FF064621
:10300000BAF1000F02D086F000407AE7304678E748
:103010002DE9F04704464FF07C51204602F082F83B
:10302000814625462E460C48A0EB660635462946C5
:10303000484602F077F88246294602F073F8804647
:103040004FF07F5102F072F90746294602F06AF804
:1030500005462846BDE8F087DF59375FFE48FF493F
:1030600008604FF07E504860FD488860002008618D
:103070004861FC48C8600020FB49086048608860DF
:1030800008614861F948C8604FF07E50F84908600F
:1030900000204860F7488860002008614861F348D4
:1030A000C86070472DE9F04105460024002600273E
:1030B000F1480068F149F24A127841F82200EE48DE
:1030C0004068F049EE4A127841F8220000BF0FE054
:1030D000EA4850F82410304601F058FE0646E94808
:1030E00050F82410384601F051FE0746601CC4B267
:1030F000AC42EDDB284601F0CDFF8046014630466C
:1031000001F0B2FEE0490860284601F0C3FF8046A6
:103110000146384601F0A8FEDC490860D84800782E
:10312000401CD749087008460078A84201D1002009
:103130000870BDE8F08110B5D549D648006802F0A6
:10314000FFF8044601F052FFD349086008460068C2
:1031500040F28A21884202DD0846CF490860CE4805
:1031600000681E2803DD0120CC49087002E0002021
:10317000CA490870CA49CB48006802F0E1F880F0FB
:103180000044204601F032FFC3498860C649C74861
:10319000006802F0D5F8044601F028FFBE494860F7
:1031A000C349C448006802F0CBF8044601F01EFF92
:1031B000B949C8600846C068052806DA0846C068EC
:1031C00010F1050F01DD0020C860B349C86801F0A7
:1031D00049FF0446B8480168204601F0A3FFB749FB
:1031E000086008460168B648006801F0CFFDB449A0
:1031F0000860B449B248006802F067F802D20020C3
:10320000AF4908600021AE48006801F057FF02D2C4
:10321000AC48AB490860A0484068052808DA9E48D9
:10322000406810F1050F03DD00209B49486002E073
:103230000120A549087098488068052808DA964852
:10324000806810F1050F03DD00209349886002E0DB
:1032500001209D4908709048406828B98E488068D0
:1032600010B90020984908708B49486801F0FAFEAF
:10327000044696480168204601F054FF94490860CE
:1032800085498968484201F0EDFE04468F4801688F
:10329000204601F047FF8F4908608D480068764955
:1032A00008608C48006848600620FFF7FBFE8A49EA
:1032B0007548006802F009F802D287487249086030
:1032C00086497148006801F0F9FE02D283486E49D0
:1032D000086081496D48006801F0F7FF02D27E481E
:1032E0006A4908607D496948006801F0E7FE02D23A
:1032F0007A48664908607A4801686348006802F0C5
:103300001FF878490860784801686048006802F052
:1033100017F8744948606E480068744908606D4841
:1033200000687349086010BD01280ED17149096811
:1033300082079186704909681187704909689187E9
:103340006F4909686F4A118010E002280ED10021F0
:103350006D4A11606D4A11606D4A11604FF47A71C7
:103360004207918611879187664A1180704710B590
:103370000468B4F5C86F03DD4FF4C864046004E06A
:103380000468002C01DA002404600C68B4F5C86FEE
:1033900003DD4FF4C8640C6004E00C68002C01DA13
:1033A00000240C601468B4F5C86F03DD4FF4C864E2
:1033B000146004E01468002C01DA002414601C6816
:1033C000B4F5C86F03DD4FF4C8641C6004E01C68EA
:1033D000002C01DA00241C6010BD2DE9F84F3A489A
:1033E00000784C4908701D48C0684B4908603D4A48
:1033F00011681A4A106801F095FE4349086039497E
:103400000868464901F05AFE24D236490868444902
:1034100001F05BFF1ED2334A1168104A506801F078
:1034200081FE009001F086FC824600223D4B00F0B8
:10343000B3FF06460F460949086901F07BFC804648
:1034400032463B4600F0EEFE044600F0B9FE03496A
:1034500008616CE068E00000CDCC2C40C004002086
:103460003333333F00009643D80400200000C842A5
:10347000F00400206666E63F2403002030030020AD
:10348000A4010020F80300202C01002030010020BE
:10349000000082442800002014030020ED000020DA
:1034A00000C0AD44200000200000B44424000020EF
:1034B0000060AF442C000020700100204401002077
:1034C000680100200000B443F2000020FC0000204E
:1034D0003C0100204001002000007041000070C14C
:1034E000D800002008030020D40000203401002070
:1034F0003801002090010020840100208801002074
:103500008C01002040000040E0000020E40000208A
:1035100094010020F30000209C0100200000704274
:10352000000070C2000079400020EB490861EA49C0
:103530000869EA49096801F0C8FE03D2E748006853
:10354000E5490861E548006880F00044E248016907
:10355000204601F0BAFE05D2E048006880F0004045
:10356000DD490861DC480169DD48006801F00EFCB6
:10357000DB490860DB4A1168DB4A106801F0E0FEB5
:103580000546D5488168284601F0CCFD80F000440E
:10359000D3480168204601F0F9FBD1490860CE48C4
:1035A000C068D2490860D24A5168CB4A106801F01D
:1035B000B9FDD0490860CE494868CF4901F07EFD89
:1035C00024D2CB494868CD4901F07FFE1ED2C84ABB
:1035D0005168C14A506801F0A5FD009001F0AAFBB6
:1035E00006460022C64B00F0D7FE04460D46BA49F7
:1035F000486901F09FFB804622462B4600F012FEF0
:10360000824600F0DDFDB449486102E00020B24985
:103610004861B1494869B549096801F056FE03D2CD
:10362000B2480068AC494861B048006880F0004486
:10363000A9484169204601F048FE05D2AB48006820
:1036400080F00040A4494861A3484169A948006846
:1036500001F09CFBA7490860A24A5168A24A506841
:1036600001F06EFE05469C488168284601F05AFD2F
:1036700080F000449F480168204601F087FB9D4987
:103680000860A0480168A048006801F059FE9F4901
:1036900008609F499D48006801F017FE1BD29D49B4
:1036A0009A48006801F011FE0CD2964801689648CD
:1036B000006801F045FE0446974901F041FE974934
:1036C000086015E08F4801688F48006801F038FEF7
:1036D000924908600CE08C4801688F4801F056FB65
:1036E000044688480168204601F02AFE8B4908609C
:1036F0008B4881688B48006801F014FD07468A48B2
:10370000006880F0004685480168304601F00AFDF7
:103710000546394601F014FE044601F067FC834972
:1037200008600846006801F09DFC0746804908686B
:1037300001F098FC80466A480168404601F026FB8B
:1037400006466C480168304601F0FAFD05463946E8
:1037500001F0F6FD044601F049FC00F57A70754968
:1037600008607248006801F07DFC074670490868EF
:1037700001F078FC80465A480168404601F006FB9B
:1037800006465C480168304601F000FB05463946B4
:1037900001F0FCFA044601F029FC00F57A70664954
:1037A00008606248006801F05DFC074660490868EF
:1037B00001F058FC80464A480168404601F0C0FDCF
:1037C00006464C480168304601F0E0FA05463946A5
:1037D00001F0B6FD044601F009FC00F57A70574986
:1037E00008605248006801F03DFC074650490868EF
:1037F00001F038FC80463A480168404601F0A0FDDF
:1038000006463C480168304601F09AFD05463946B7
:1038100001F0BCFA044601F0E9FB00F57A70484972
:1038200008600B46454A44494248FFF7A0FD454819
:10383000007801280CD13E480068192808DD0120D5
:10384000FFF772FD0020404908704049088002E0FF
:103850000220FFF769FD3E493E48006801F035FD52
:1038600011D33D493B48006801F028FC0BD338498F
:103870003A48006801F029FD05D337493748006808
:1038800001F01CFC02D20120354908703448007850
:10389000012802D03348007848B90220FFF744FDE0
:1038A0003148006820F400403049C1F80C0CBDE8F4
:1038B000F88F4FF4A5701E49086001202149087057
:1038C00000201B4988604860C8600949086048605A
:1038D0000149086148617047C00400209C01002034
:1038E000E0000020B8010020F0020020A00100202C
:1038F00008030020E400002000007042000070C2B5
:1039000000007940DC000020680100206C010020EC
:10391000000034C3000034430000B44358010020C9
:10392000E4020020640100206001002094010020D6
:103930001403002084010020880100208C01002055
:1039400090010020ED000020EE000020F00000209B
:1039500000004842D4000020000048C2D8000020E7
:103960002A010020010000200C0C01400000014051
:10397000704710B5203AC0F00B80B1E81850203ADB
:10398000A0E81850B1E81850A0E81850BFF4F5AFFF
:103990005FEA027C24BFB1E81850A0E8185044BF89
:1039A00018C918C0BDE810405FEA827C24BF51F8F6
:1039B000043B40F8043B08BF7047D20728BF31F8EA
:1039C000023B48BF11F8012B28BF20F8023B48BF3B
:1039D00000F8012B7047704770477047704710B56B
:1039E00000F008F8006810BD10B5044600F002F8B9
:1039F000046010BD01487047704700BF08050020F3
:103A000000487047080500207546FFF7F9FFAE46ED
:103A100005006946534620F00700854618B020B5DA
:103A2000FCF7E6FBBDE820404FF000064FF0000732
:103A30004FF000084FF0000B21F00701AC46ACE856
:103A4000C009ACE8C009ACE8C009ACE8C0098D46C3
:103A500070470446AFF300802046FCF7B0FB00003F
:103A600001487047704700BF0C050020490050EA2C
:103A7000C12018BF04204A0D18BF40F0010040F2D9
:103A8000FF72B2EB515F08BF40F00200012808BF8F
:103A9000052070472DE9F0414F1E00EBC701044699
:103AA000D1E9000115461E4637F006020DD02A4620
:103AB000334600F02FFE7F1E04EBC703D3E900233B
:103AC00000F0B0FB37F00602F1D1022F25D0042F11
:103AD00013D0062F18BFBDE8F0812A46334600F008
:103AE00019FED4E90A2300F09DFB2A46334600F074
:103AF00011FED4E9082300F095FB2A46334600F076
:103B000009FED4E9062300F08DFB2A46334600F077
:103B100001FED4E9042300F085FB2A46334600F079
:103B2000F9FDD4E9022300F07DFB2A46334600F07C
:103B3000F1FDD4E90023BDE8F04100F073BB0000C3
:103B4000024A0020110701F0A2BC000001FDFFFFA6
:103B50002DE9F04D914F21F0004A86B005460C4604
:103B6000BA452FDBAAEB070028430BD08C488245CF
:103B700001DC1BD1D5B106B02846BDE8F04D0122CD
:103B800001F085BC874A884B284600F0C3FD0746F4
:103B90000E46864A864B2846214600F0BBFD06B0FD
:103BA0003A463346BDE8F04D00F03CBB0120FFF73C
:103BB0001BFF06B00022BDE8F04D1346104611462B
:103BC00000F0EABB7B48824543DABAF1795F0BDA51
:103BD0002846FFF74BFF042808BFFFF7B1FF284630
:103BE00006B02146BDE8F08D0B462A462846214600
:103BF00000F090FD834602466F480E460B460621B4
:103C00007844FFF747FF5A46334600F083FD80466D
:103C10006A488A465A46334604217844FFF73AFFF9
:103C20005A46334600F076FD00223B4600F0FAFA91
:103C300002460B464046514600F0AEFB2A4623465C
:103C400000F068FD06B02A462346BDE8F04D00F0BE
:103C5000E9BA284624F0004100223D463B4600F0E8
:103C60008DFE4FF0FF3201F012FC0646024654482A
:103C70000F460B4606217844FFF70CFF32463B46C1
:103C800000F048FDCDE900014E4832463B46042194
:103C90007844FFF7FFFE32463B4600F03BFD002232
:103CA0002B4600F0BFFA834602913046394600F0B9
:103CB00061FA804644480D46504517DCDDE90001B5
:103CC0005A46029B00F068FB42462B4600F022FD5C
:103CD00042462B4600F0A6FA012201F0D8FB314AF9
:103CE000314B00F03DFF314A314B4DE04FF0000ABF
:103CF0000B4652464046294600F094FACDE903109F
:103D000052462B465046294600F004FD32463B46BB
:103D100000F034FEDDE9033200F03EFB06460F46BC
:103D2000DDE900015A46029B00F036FB8346009114
:103D300001223046394601F0AAFB1A4A1A4B00F01C
:103D40001DFE06460F4601224046294601F09FFB14
:103D50005A46009B00F0DEFC32463B4600F000FF76
:103D600007460E4601225046294601F090FB0F4DB2
:103D7000DFF858802A46434600F000FE3A463346B4
:103D800000F0FCFD2A46434600F0F8FD002CD8BFA9
:103D900081F0004106B0BDE8F08D00000000F03F6A
:103DA0000000F07F075C143326A6913C182D445484
:103DB000FB21F93F0000E03F6C1900008219000070
:103DC000F61800000C1900003333EF3FFB21E93FE8
:103DD0002DE9F84F04460D4621F00040009174494A
:103DE000884212DB7349884201DC07D134B1204696
:103DF0002946BDE8F84F012201F049BB6E48002D6D
:103E0000CCBF6E496E49BDE8F88F6E49884211DA21
:103E10006D498842A8BF4FF0FF366DDA204629462B
:103E2000FFF724FE042808BFFFF78AFE2046294634
:103E3000BDE8F88F6549DFF898A125F00045884274
:103E400032DA6449884219DA002632464FF080435C
:103E50002046294600F0E6F907468846012220461A
:103E6000294601F014FB0022534600F079FE3A4641
:103E7000434600F091FA04460D463DE0012600223B
:103E800053462046294600F0CDF9074688460022D1
:103E900053462046294600F063FE43463A4600F06A
:103EA0007BFA04460D4627E04B4988421BDADFF8CF
:103EB0002C810226002243462046294600F02AFC97
:103EC0000022534600F0AEF982460F4600224346D8
:103ED0002046294600F044FE52463B4600F05CFA7C
:103EE00004460D4608E0032622462B4600203C49A6
:103EF00000F052FA04460D4622462B46204629463B
:103F000000F008FC8B46824602460B4600F002FC9D
:103F100007460246334888460B4606217844FFF799
:103F2000B9FD52465B4600F0F5FB82462E488B46B3
:103F30003A46434605217844FFF7ACFD3A464346EE
:103F400000F0E8FB02460B46002E504659460CDABC
:103F500000F068F922462B4600F0DCFB01B0224657
:103F60002B46BDE8F04F00F009BD00F05BF922469A
:103F70002B4600F0CFFB1D4A7A4402EBC603D3E97F
:103F8000002300F0EDFD22462B4600F0E9FD184A23
:103F90007A4402EBC603D3E9002300F0EFFC009A59
:103FA000002AB4BF81F00041BDE8F88FBDE8F88F6A
:103FB000000010440000F07F182D4454FB21F93F0D
:103FC000FB21F9BF0000DC3F0000203E0000F33F72
:103FD0000000F03F0000E63F008003400000F83F93
:103FE0000000F0BF08170000C616000064160000AD
:103FF0002C1600002DE9F04D9446CCF1000423F07E
:1040000000464CEA0404524F46EAD47498468A4665
:1040100021F00042BC4206D8454240EA050442EA8B
:10402000D474BC4204D9BDE8F04D624600F0FAB841
:10403000A8F14055A5F17F6555EA0C040BD0022488
:1040400004EAA874434DDFF810E144EADA7452EA56
:10405000000B04D00CE0BDE8F04DFFF7B9BE002C1A
:1040600014BF012CBDE8F08D022C30D0032C32D0CF
:1040700056EA0C0B0AD0BE4220D1BA4209D126F032
:10408000804622F080423346114617E000291ADBB1
:1040900025E0DFF8C8B0FB44002C04BFDBE90001D9
:1040A000BDE8F08D012C02BFDBE9000181F0004189
:1040B000BDE8F08D022C0AD0032C0CD0BA4212D1EC
:1040C000BAF1000F0BDA23482549BDE8F08D2846E8
:1040D0002449BDE8F08D28467146BDE8F08D1D48A5
:1040E0002149BDE8F08D921B12153C2AC4BF194826
:1040F0001D490EDCB8F1000FBEBF12F13C0F0020CD
:10410000014606DB624600F047F921F00041FFF767
:104110005FFE002C08BFBDE8F08D012C04BF81F0CC
:104120000041BDE8F08D114A114B022C07D000F080
:1041300017FD2A46BDE8F04D0A4B00F011BD00F016
:104140000FFD2A46BDE8F04D064B00F017BC0000FD
:104150000000F07F182D4454FB2109C0BE1500005B
:10416000FB21F9BFFB210940FB21F93F075C143318
:1041700026A6A13C2DE9F04106460F4600F00AFCB8
:1041800004000D4618BF0120284320F00040C0F174
:104190007F6010F1E0400ED5002E14BF01200020FA
:1041A000384320F00040C0F17F6010F1E0405CBF78
:1041B0000120FFF719FC20462946BDE8F0810000E8
:1041C00021F00042A2F16052B2F5801F01F00043DD
:1041D00028BFD2F17F6C0BD95FEA001C43EAC20210
:1041E00042EB507018BF704728BF20F001007047A5
:1041F000B2F5801FBCBF184670474FEA410C1CF552
:10420000001F02D2084601F05BB870B500F02CFB2D
:1042100000000089FFF7F6BF4FF00040A0F58000D6
:104220007047000010B591EA030F48BF83F00043C8
:1042300000F19E84841A71EB030E05D2121943EB30
:104240000E03001B61EB0E01DFF820C14FEA115491
:10425000A4EB135E1CEA430F18BF9CEA445F71D0C5
:1042600023EA0C03DEF1200C21EA045143F480130D
:1042700032D322FA0EFC10EB0C0023FA0EFC41EBB9
:104280000C01CEF1200C03FA0CFC10EB0C0051F1E8
:104290000001B1F5801FCEF1200C32D201EB0451A8
:1042A000BDE8104012FA0CF258BF7047401C38BFEE
:1042B0005FEA420218BF7047002814BF20F00100D7
:1042C00041F100014FEA410313F5001F38BF704769
:1042D000A1F1C04100F016BB012A43EB0302AEF18D
:1042E000200EDEF11F0C32BF4FF0000C23FA0EF34C
:1042F00010EB030041EB0451B4EB115FD0D0A1EB04
:10430000045101F58011490801EB0451BDE810404A
:104310005FEA30000CD350F1000038BF12FA0CFCF9
:1043200006D1C9E7401C38BF5FEA4202CAD1C3E7E1
:104330004FEA410313F5001F38BF7047A1F1C04198
:1043400000F0E0BA9CEA445F08D0BDE8104011EAF2
:104350005C0F04BF01F0004100207047BDE8104031
:1043600070B500F081FA00BF64FBBE3E0000E0FFC4
:1043700002494FF0000001F058B800BF0000F87F7C
:10438000491058BFC1F140415B1058BFC3F14043D1
:104390008B42EFF3008070472DE9C04130B4DFF865
:1043A000A0C23CEA111418BF3CEA131400F0EC80E0
:1043B00081EA03051CEA111444EAD57418BF1CEA0B
:1043C000131500F0C780A4EB05044FF0004545EA43
:1043D000C12145EAC32341EA505143EA525304F153
:1043E0007F74994204F500344FEAC0204FEAC2229C
:1043F00008BF904200F09C804FEA13650FF2401610
:10440000765D4FEA134506FB05F7C7F1807706FB9B
:1044100007F74FEAD737A7FB03687642C8F580381D
:10442000A7FB06CE38BFA8F1010807FB08E64FF04E
:10443000000EA6FB028CE6FB03CEDCF1000CCEF1F5
:10444000004E38BFAEF1010EA6FB0C584FF000072E
:104450004FF00005E6FB0E87A1FB08C6A0FB07CEC8
:1044600016EB0E0645F10005E1FB076515F1E04E80
:104470007EBFA4F580345FEA46066D4116F18007E1
:1044800045F100054FEA17274FEA066647EA056738
:10449000A6F1DE46B6F1805F4FEA15251FD93846F2
:1044A00024F0010C05EBC471BCF1FE6F01EB0C11A3
:1044B00002D8F0BCBDE8008124425CBF01F5801E3B
:1044C0009EEAC47F02D4F0BCBDE80081244238D407
:1044D000F0BCA1F1C041BDE8004100F013BA4FEAC1
:1044E000D22242EA43524FEAD323A7FB02864FEA85
:1044F000D02040EA415007FB03661EEA0E0F4FEA48
:10450000D12105FB026658BFA6EB0056B6EB00565C
:104510004FEA520E4EEAC37E18EB0E0E56EB530EC8
:10452000BDD518EB02085E417F1C55F10005B6E7CA
:104530004FF480154FF000074FF000064FF00008D1
:10454000ADE7F0BC4FF0000001F1C04101F00041C7
:10455000BDE8008111EA0C1F0CEA131500D00CE035
:1045600013EA0C1F00F025804FF00000F0BC81EA38
:10457000030101F00041BDE80081F0BCBDE800414D
:1045800081EA030100F0BEB9F0BCBDE8004170B59E
:1045900000F06AF9097EFC3E00F007B881EA0301E9
:1045A0004FF0000001F00041704781EA030100F084
:1045B000A9B9F0BCBDE800414FF0000021497047A7
:1045C000FFFDFBF9F7F5F4F2F0EEEDEBE9E8E6E4D8
:1045D000E3E1E0DEDDDBDAD8D7D5D4D3D1D0CFCD5F
:1045E000CCCBCAC8C7C6C5C4C2C1C0BFBEBDBCBB98
:1045F000BAB9B8B7B6B5B4B3B2B1B0AFAEADACAB93
:10460000AAA9A8A8A7A6A5A4A3A3A2A1A09F9F9E6C
:104610009D9C9C9B9A99999897979695959493931E
:10462000929191908F8F8E8E8D8C8C8B8B8A8989B5
:104630008888878786858584848383828281818038
:104640000000FF070000F87F10F0004248BF404222
:10465000B0FA80F310FA03F10AD0C3F11D0303F599
:1046600080634FEA415002EB035202EBD1217047C5
:104670004FF000007047B0FA80F310FA03F10AD04F
:10468000C3F11D0303F580634FEA41504FEA035223
:1046900002EBD12170474FF00000704751EA030C44
:1046A00017D41CF5801F58BFBCF5801F00F1068091
:1046B000994218BF704708BF9042704707D711F55D
:1046C000801F58BF13F5801F19D499427047894243
:1046D00070471CF5801F08D5BCF5801FF7D58B42AD
:1046E00018BF704708BF824270474FF4001C1CEB94
:1046F000410F38BF1CEB430F01D28B42704770B59E
:1047000000F0B2F8922449004FF000514FF080536E
:10471000FFF736BEDFF848C170B51CEA111E1EBF98
:104720001CEA13159EEA0C0F95EA0C0F00F06F803F
:1047300081EA030423EA4C134EEAD47E21EA4C11A9
:1047400041F4801143F48013AE44A1FB024CA0FB62
:104750000365AEF17F7E361955EB0C05A1FB034CCA
:104760004CF10003A0FB021C16EB0C06654153F153
:104770000003094218BF46F0010613F4007F0BD175
:104780004FEA03314FEA0530340341EA155140EA5C
:1047900016506FF003020AE04FEAC3214FEAC5202A
:1047A000F40241EA555140EA56506FF0020202EB22
:1047B0002E4201EB025585EACE710AD05FEA440C25
:1047C00018BF24F0004450F1000041F1000120EA3C
:1047D000D47040F2FE7C624500D270BDA84214BF86
:1047E0004FF080444FF04044002E08BF0024BEF13B
:1047F000806FA8BFA1F1C041BDE8704080F2828007
:104800004FF0000001F1C04101F0004170479EEA05
:104810000C0F0CEA131518BF95EA0C0F06D04FF0D9
:10482000000081EA030E0EF0004170BD00F01CF89C
:104830008900013E00F007B800F009B84FEA430CC8
:104840005FEA5C5C08D081EA030100F05BB84FEAE4
:10485000410C5FEA5C5CF6D14FF000000149704703
:104860000000FF070000F87F0EF1020E2EF0030E8D
:104870005EF8046B364205D4012A43EB030515F5B7
:10488000001F12D8012841EB010C1CF5001F0CD8A9
:104890000ED14FEAD17C15F5001F0CEB4C0C0CF13E
:1048A000020C08BF4CEBD37C04E04FF0080C01E095
:1048B0004FEAD37C0CEB4C0526FA05F606F007060A
:1048C000B6F1040C06D20EEB860CBDE870404CF03D
:1048D000010C6047DFE80CF0090B02024FF00041C9
:1048E0004FF00000A1F5002170BD194610460128C7
:1048F00051EB010418BFD4F5001484BF002001F06F
:10490000004170BD0808A0F500114FEA3101704761
:1049100053EA010C17D41CF5801F58BFBCF5801F4B
:1049200000F106808B4218BF704708BF8242704773
:1049300007D713F5801F58BF11F5801F19D48B427C
:1049400070479B4270471CF5801F08D5BCF5801F3F
:10495000F7D5994218BF704708BF904270474FF48F
:10496000001C1CEB430F38BF1CEB410F01D29942D6
:1049700070470FB40CBC03BCFFF7C1BE91EA030F34
:1049800010B581F000413FF555AC83F0004300F0D5
:10499000EFB800002DE9F04101F5801CBCF5001FC7
:1049A000C0F2C3804FEA115C21EA0C510CF1FD0CFE
:1049B00041F480115FEA5C0C0CF5C07C01D340002F
:1049C00049413DA4890241EA905187028E0E0A0CAA
:1049D000A45D04FB04F602FB06F6C6F14046A4FB08
:1049E0000662F60D46EA422606FB06F4A4FB012306
:1049F0005242C3F1404338BF5B1EA6FB0242002473
:104A0000E6FB0324D20B42EA4446A6FB0623A1FBA5
:104A100002E2A3FB07E4A4184FF0000252F10002E7
:104A2000E3FB01426442C2F1404E38BFAEF1010ED9
:104A3000A6FB04234FF00002E6FB0E32A2FB034666
:104A40004FF00004B61954F10004E2FB0264A1FB2C
:104A500006E6A4FB07E816EB08064FF0000858F13D
:104A60000008E4FB01687642C8F1405838BFA8F15D
:104A70000108A2FB06E4A3FB08E52D194FF0000492
:104A800054F10004E2FB0854A1FB05E6A7FB04E88F
:104A900018EB06084FF0000656F10006E1FB04860D
:104AA00018F1200556F10006A809A8F11B08B10964
:104AB00008F03F08B8F10A0F40EA86601CD901EB04
:104AC0000C51BDE8F08100BFFCF5EEE8E2DDD8D383
:104AD000CFCBC7C3C0BDB9B6B4B1AEACA9A7A5A36F
:104AE000A19F9D9B9A9896959392908F8D8C8B8980
:104AF0008887868584838281A0FB006800FB01F2A1
:104B000008EB4208B8EB872807D5341858EB0104A6
:104B1000D5D5401C51F10001D1E7341A78EB0104DE
:104B2000CDD4401E71F10001C9E75FEA4C0C5FEA89
:104B30009C5C0DD105D34FF0000001F00041BDE8B1
:104B4000F081BDE8F04170B5FFF78EFE6DDBFFBE72
:104B5000BDE8F0414FF00000004970470000F87FC9
:104B600010B591EA030F48BF83F000433FF562ABF5
:104B7000841A71EB030E07D212198EF0004E43EB2C
:104B80000E03001B61EB0E01DFF8A4C14FEA1154C4
:104B9000A4EB135E1CEA430F18BF9CEA445F00F0CD
:104BA000B08023EA6C03524221EA0451C3EB6C0348
:104BB00038BF5B1EDEF1200C25D322FA0EFC10EB71
:104BC0000C0043FA0EFC41EB0C01CEF1200C03FA71
:104BD0000CFC10EB0C0051F10001CEF1200C29D49B
:104BE00001EB0451BDE8104012FA0CF258BF7047B7
:104BF000401C1CBFB2F1004F704700280CBF491C7D
:104C000020F00100704712EB020C43EB030218BFC7
:104C10004FF0010C4CEA4202AEF1200EDEF11E0C08
:104C200054D943FA0EFC10EB0C0051F1FF31CEF1D8
:104C30001E0CD5D50CF1010C12FA0CFC404141EBD5
:104C4000010101EB445E5FEA5E5E10D901EB0451A5
:104C5000BDE8104010EBDC7038BFBCF1004F18BF4E
:104C6000704700280CBF491C20F00100704730D26B
:104C70004FEAD42E11F5001124F400641BD0B1FAD0
:104C800081F20B3AA41AA41ED2F12003914030FA0B
:104C900003F31943904001EBCE71002C01EB04515A
:104CA000BDE81040A8BF704701F1C0414FF00000BF
:104CB00001F000417047B0FA80F310FA03F100D11F
:104CC00010BDE41A173C4805C90AE4E701EB04519A
:104CD00010BD491001EB0451BDE810404FEA30000F
:104CE00002E04FF0000170474A0008BF0042F8D0D0
:104CF000B2F5001F28BF704701F000414FF00000DF
:104D000070479CEA445F07D0BDE8104011EA5C0F91
:104D100004BF002100207047BDE8104070B5FFF7C8
:104D2000A3FD00BF40DFF63E83F000411046704710
:104D30000000E0FF43004FEAD30C4FEA3C0C434035
:104D40001FBF40070CF1605113F0FE4F70471CF07D
:104D5000006F03D100200CF0004170470CF00043BD
:104D600043EA507010B540EACC0000F05CFA00BF96
:104D7000000000924FEA0001FFF7C4BD4FF0004170
:104D80004FF00000A1F500217047000090EA010FEC
:104D900048BF81F0004100F1DA82421A3CBF801A1C
:104DA00089184FEAD0524FF07F4C1CEA410FA2EB1A
:104DB000D15318BF9CEA026F00F03B804FF0004CCB
:104DC0004CEA00204CEA012121FA03FC10EB0C0C08
:104DD0001ED202F1FF325FEA1C2040EBC25038BF06
:104DE00070471CF07F0F4FEA400C18BFBCF17F4F9B
:104DF00038BF7047C3F12003994008BF20F001007D
:104E0000BCF17F4F38BF7047A0F1C04000F058BAE6
:104E10004FEA3C00000A40EBC25028BF1CF0FF0FD5
:104E20004FEA400CE6D018BFBCF17F4F38BF704747
:104E3000EAE79CEA026F05D010EA5C0F08BF00F0B9
:104E40000040704710B500F0EEF900BF64FBBE3EB5
:104E5000401058BFC0F14040491058BFC1F1404117
:104E60008142EFF3008070474FF47F0C1CEAD012B0
:104E70001EBF1CEAD11392EA0C0F93EA0C0F00F04C
:104E8000858090EA010F48BF42F4807240F4000C24
:104E900041F400002CF07F4120F07F4000B58142BA
:104EA000A2EB03020FF2081CACEB504EC0F1000065
:104EB0009EF800E04FEA4E0E00FB0EFC38BF4900A2
:104EC0004FEA2C1C02F5FA020CFB0EF34FEACE1E41
:104ED0004FEA112C4FEAC1210EEB635E42EB2242F6
:104EE0000EFB0CFC4FEA1C5300FB03114FEA112C84
:104EF0004FEA01310EFB0CFC4FEADC4C00FB0C11BD
:104F0000C14228BF09184CEB03335DF804EB10EBEA
:104F1000410143EBC250B2F57C0F38BF704729D531
:104F200012F0F00F1CBF00F1C04000F000407047CD
:104F3000008182838485868788898B8C8D8E8F9172
:104F40009293959697999A9C9D9FA0A2A3A5A7A896
:104F5000AAACAEB0B2B3B5B7B9BCBEC0C2C5C7C9C2
:104F6000CCCED1D4D7D9DCDFE2E6E9ECF0F3F7FA26
:104F7000FE0000004FEA400C0CF1807CBCF17E4F3B
:104F800028BF7047B0F1C04000F09AB990EA010F15
:104F90000CEAD11348BF42F48072624538BF6345C2
:104FA00007D213F47F0F16D080EA010000F0004012
:104FB000704710B500F037F9097EFC3E00F005B8E7
:104FC00080EA010000F00040704780EA010000F034
:104FD000004000F075B912F47F0F04BF024870471B
:104FE00080EA010000F06CB90000C07F41000B0EA8
:104FF000D3F19E0208D950F400034FEA032323FAA9
:1050000002F048BF4042704710B500F00CF900BFF5
:1050100049922480002070476FF0004282EA20000D
:1050200070470000C10DD1F19E0206DB4FEA00235C
:1050300043F0004323FA02F07047004207D54FEADD
:105040004001B1F1FE4F02D24FF00000704710B5A1
:1050500000F0E9F849922480002070476FEA2000B0
:105060007047000010F0004148BF4042B0FA80F3A2
:1050700010FA03F2C3F19D030BD051EAC35101EBC7
:105080001220530638BF704700F1010008BF20F01E
:1050900001007047B0FA80F310FA03F2C3F19D03E8
:1050A0000AD0D90501EB1220530638BF704700F132
:1050B000010008BF20F001007047000050EA010C19
:1050C00000F113801CF5000F58BFBCF5000F01D490
:1050D0008842704707D710F5000F58BF11F5000F31
:1050E00015D488427047894270471CF5000F04D5DB
:1050F000BCF5000FF7D5814270474FF0807C1CEB68
:10510000400F38BF1CEB410F01D28142704710B5F0
:1051100000F089F8922449004FF000504FF0805180
:10512000FFF796BE4FF47F0C1CEAD0121EBF1CEA9C
:10513000D11392EA0C0F93EA0C0F00F0478090EA2B
:10514000010F48BF42F480724FF0004C4CEA00203F
:105150004CEA012102EB0302A0FB0113A2F50002BD
:10516000002918BF43F001035B0028BF4FEA330357
:1051700042EB22425FEA132C4CEBC2502EBFBCEB39
:10518000436FB2F57C0F70474FEA036CBCF1004FE0
:1051900008BF20F00100B2F57C0F38BF70470BD577
:1051A00082F0FF0212F5803FC8BF704700F1C04097
:1051B000D8BF00F00040704700F5000C5FEA4C0CCF
:1051C00048BF7047B0F1C04000F07AB890EA010FD4
:1051D0000CEAD11348BF42F48072624538BF634580
:1051E00004D280EA010000F00040704710B500F0E2
:1051F0001AF800BF8900013E00F007B800F009B8B6
:105200005FEA410C5FEA1C6C08D080EA010000F004
:1052100057B85FEA400C5FEA1C6CF6D14FF00040D3
:10522000A0F5800070470EF1020E2EF0030E5EF81E
:10523000044B244204D44FEA4102B2F17F4F11D80B
:105240004FEA4003B3F17F4F0CD80ED14FEAD07C28
:10525000B2F17F4F0CEB4C0C0CF1020C08BF4CEB85
:10526000D17C04E04FF0080C01E04FEAD17C0CEB5C
:105270004C0324FA03F404F00704B4F1040C06D23E
:105280000EEB840CBDE810404CF0010C6047DFE8E9
:105290000CF0070802024FF00040A0F5800010BD9E
:1052A0000846420018BFD2F1807288BF00F000406B
:1052B00010BD10B5FEF7D4FB4FF00001016010BD2A
:1052C000FF2141EAD050C005704751EA000C00F1BF
:1052D00013801CF5000F58BFBCF5000F01D48142AC
:1052E000704707D711F5000F58BF10F5000F15D400
:1052F00081427047894270471CF5000F04D5BCF508
:10530000000FF7D5884270474FF0807C1CEB410FAF
:1053100038BF1CEB400F01D28842704780EA010081
:1053200081EA000180EA0100FFF7F1BE80F0004051
:1053300090EA010F7FF531AD81F0004100F007B830
:1053400090EA010F48BF81F000413FF526AD421AB7
:1053500004D882F00042A0EB020011444FEAD05280
:105360004FF07F4C1CEA410FA2EBD15318BF9CEACF
:10537000026F4AD04FF0004C4CEA00204CEA012169
:1053800021FA03FCB0EB0C0C0FD412F0FE0F36D058
:105390005FEA4C001DD5001240EBC25038BF704789
:1053A0001CF03F0F18BF70470BE0A2F101025FEA4B
:1053B0001C2040EBC25038BF70471CF07F0F18BF55
:1053C0007047C3F12003994014BF401E20F0010034
:1053D000704780084FEA122308BF7047B0FA80FC7C
:1053E000A2EB0C02CCF1280C60FA0CF093EA122F1D
:1053F00004BF00EBC25070474FEAC3707047130AF6
:105400005FEADC1008BF7047F6E79CEA026F04D041
:1054100010EA5C0F08BF0020704710B5FFF703FFCC
:1054200040DFF63E81F0004070470CF00F03092B7F
:1054300008BF082000F05B800A2B0BD0082B18BF98
:10544000704708BF1CF0400F0AD04FF000004FF02B
:10545000000170471CF0400F18BF4FF0004070472C
:105460001CF0100F08D020F0704300F07F4242EA99
:10547000D3014FEA4370704700F0604021F07F4253
:1054800042EA000201F07F4040EA727070474FF03C
:10549000FF0C4CF4E06C1CEA11531CBF9CEA030C9B
:1054A0009445C2BFDA4201EB02517047002B0DD088
:1054B000BCF1000F0FD0002A01F00041A4BF41F061
:1054C000E04141F07F614FF00000704701F0004182
:1054D0004FF00000704750EA01334FF09B0C18BFAB
:1054E0004CF0806C7EF444AFAFF3008070471CF446
:1054F000801F11D01CF4E02F03D06FEACC3149009B
:1055000070474FF04050EFF3008222F0704242EAC1
:10551000000282F3008870474FF0000070470000DF
:10552000F775603C4260653C1EA7683CFAED6B3C39
:10553000D7346F3C45D8703CB37B723C211F743C20
:105540008FC2753C8FC2753C8FC2753C211F743C65
:10555000B37B723C45D8703CD7346F3CFAED6B3C62
:105560001EA7683C4260653CF775603C0000000087
:10557000555555555555C53F7D6FEB0312D6D4BFD4
:105580005544880E55C1C93F3B8F68B52882A4BFDA
:1055900088B20175E0EF493F09F7FD0DE13D023F9B
:1055A0004B2D8A1C273A03C0C88A599CE52A004023
:1055B00059018D1B6C06E6BF82922EB1C5B8B33F70
:1055C0004FBB610567ACDD3F182D4454FB21E93F1B
:1055D0009BF681D20B73EF3F182D4454FB21F93F0A
:1055E000E2652F227F2B7A3C075C143326A6813C90
:1055F000BDCBF07A8807703C075C143326A6913C3B
:10560000C4EB98999999C9BF711623FEC671BCBFA6
:105610006D9A74AFF2B0B3BF9AFDDE522DDEADBF0E
:105620002F6C6A2C44B4A2BF0D5555555555D53F26
:10563000FF8300922449C23F6E204CC5CD45B73F41
:10564000513DD0A0660DB13FEB0D76244B7BA93FB9
:1056500011DA22E33AAD903F0000000000000000A4
:105660008056000800000020A80100002801000862
:10567000B0560008A8010020C00C000084010008FA
:1056800002330A021F223E12345678A105011DE0A2
:105690000A400AD7A33B0AD7233B0368803F2980EF
:1056A000015002111E39D079D4053417B7513A0090
:04000005080000ED02
:00000001FF
